{
    "abi": [
        {
            "inputs": [
                {
                    "internalType": "string",
                    "name": "_title",
                    "type": "string"
                },
                {
                    "internalType": "string",
                    "name": "_description",
                    "type": "string"
                }
            ],
            "name": "createProposal",
            "outputs": [],
            "stateMutability": "nonpayable",
            "type": "function"
        },
        {
            "inputs": [],
            "name": "getProposalsCount",
            "outputs": [
                {
                    "internalType": "uint256",
                    "name": "",
                    "type": "uint256"
                }
            ],
            "stateMutability": "view",
            "type": "function"
        },
        {
            "inputs": [
                {
                    "internalType": "address",
                    "name": "",
                    "type": "address"
                },
                {
                    "internalType": "uint256",
                    "name": "",
                    "type": "uint256"
                }
            ],
            "name": "hasVoted",
            "outputs": [
                {
                    "internalType": "bool",
                    "name": "",
                    "type": "bool"
                }
            ],
            "stateMutability": "view",
            "type": "function"
        },
        {
            "inputs": [
                {
                    "internalType": "uint256",
                    "name": "",
                    "type": "uint256"
                }
            ],
            "name": "proposals",
            "outputs": [
                {
                    "internalType": "string",
                    "name": "title",
                    "type": "string"
                },
                {
                    "internalType": "string",
                    "name": "description",
                    "type": "string"
                },
                {
                    "internalType": "uint256",
                    "name": "yesVotes",
                    "type": "uint256"
                },
                {
                    "internalType": "uint256",
                    "name": "noVotes",
                    "type": "uint256"
                }
            ],
            "stateMutability": "view",
            "type": "function"
        },
        {
            "inputs": [],
            "name": "readProposals",
            "outputs": [
                {
                    "components": [
                        {
                            "internalType": "string",
                            "name": "title",
                            "type": "string"
                        },
                        {
                            "internalType": "string",
                            "name": "description",
                            "type": "string"
                        },
                        {
                            "internalType": "uint256",
                            "name": "yesVotes",
                            "type": "uint256"
                        },
                        {
                            "internalType": "uint256",
                            "name": "noVotes",
                            "type": "uint256"
                        }
                    ],
                    "internalType": "struct ProposalVoter.Proposal[]",
                    "name": "",
                    "type": "tuple[]"
                }
            ],
            "stateMutability": "view",
            "type": "function"
        },
        {
            "inputs": [
                {
                    "internalType": "uint256",
                    "name": "_proposalId",
                    "type": "uint256"
                },
                {
                    "internalType": "bool",
                    "name": "_voteYes",
                    "type": "bool"
                }
            ],
            "name": "vote",
            "outputs": [],
            "stateMutability": "nonpayable",
            "type": "function"
        }
    ],
    "bytecode": {
        "object": "0x608060405234801561001057600080fd5b50610a61806100206000396000f3fe608060405234801561001057600080fd5b50600436106100625760003560e01c8063013cf08b14610067578063425458251461009357806365e481e2146100ce57806380934f33146100e357806398e527d3146100f8578063c9d27afe14610109575b600080fd5b61007a6100753660046105fe565b61011c565b60405161008a949392919061065d565b60405180910390f35b6100be6100a1366004610696565b600060208181529281526040808220909352908152205460ff1681565b604051901515815260200161008a565b6100e16100dc366004610771565b61026c565b005b6100eb610305565b60405161008a91906107d5565b60015460405190815260200161008a565b6100e1610117366004610870565b61049c565b6001818154811061012c57600080fd5b906000526020600020906004020160009150905080600001805461014f906108a5565b80601f016020809104026020016040519081016040528092919081815260200182805461017b906108a5565b80156101c85780601f1061019d576101008083540402835291602001916101c8565b820191906000526020600020905b8154815290600101906020018083116101ab57829003601f168201915b5050505050908060010180546101dd906108a5565b80601f0160208091040260200160405190810160405280929190818152602001828054610209906108a5565b80156102565780601f1061022b57610100808354040283529160200191610256565b820191906000526020600020905b81548152906001019060200180831161023957829003601f168201915b5050505050908060020154908060030154905084565b6040805160808101825283815260208101839052600091810182905260608101829052600180548082018255925280519091829160049091027fb10e2d527612073b26eecdfd717e6a320cf44b4afac2b0732d9fcbe2b7fa0cf6019081906102d4908261092e565b50602082015160018201906102e9908261092e565b5060408201518160020155606082015181600301555050505050565b60606001805480602002602001604051908101604052809291908181526020016000905b82821015610493578382906000526020600020906004020160405180608001604052908160008201805461035c906108a5565b80601f0160208091040260200160405190810160405280929190818152602001828054610388906108a5565b80156103d55780601f106103aa576101008083540402835291602001916103d5565b820191906000526020600020905b8154815290600101906020018083116103b857829003601f168201915b505050505081526020016001820180546103ee906108a5565b80601f016020809104026020016040519081016040528092919081815260200182805461041a906108a5565b80156104675780601f1061043c57610100808354040283529160200191610467565b820191906000526020600020905b81548152906001019060200180831161044a57829003601f168201915b505050505081526020016002820154815260200160038201548152505081526020019060010190610329565b50505050905090565b60015482106104e85760405162461bcd60e51b8152602060048201526013602482015272125b9d985b1a59081c1c9bdc1bdcd85b081251606a1b60448201526064015b60405180910390fd5b3360009081526020818152604080832085845290915290205460ff16156105615760405162461bcd60e51b815260206004820152602760248201527f596f75206861766520616c726561647920766f746564206f6e207468697320706044820152661c9bdc1bdcd85b60ca1b60648201526084016104df565b80156105a2576001828154811061057a5761057a6109ee565b60009182526020822060026004909202010180549161059883610a04565b91905055506105d9565b600182815481106105b5576105b56109ee565b6000918252602082206003600490920201018054916105d383610a04565b91905055505b503360009081526020818152604080832093835292905220805460ff19166001179055565b60006020828403121561061057600080fd5b5035919050565b6000815180845260005b8181101561063d57602081850181015186830182015201610621565b506000602082860101526020601f19601f83011685010191505092915050565b6080815260006106706080830187610617565b82810360208401526106828187610617565b604084019590955250506060015292915050565b600080604083850312156106a957600080fd5b82356001600160a01b03811681146106c057600080fd5b946020939093013593505050565b634e487b7160e01b600052604160045260246000fd5b600082601f8301126106f557600080fd5b813567ffffffffffffffff80821115610710576107106106ce565b604051601f8301601f19908116603f01168101908282118183101715610738576107386106ce565b8160405283815286602085880101111561075157600080fd5b836020870160208301376000602085830101528094505050505092915050565b6000806040838503121561078457600080fd5b823567ffffffffffffffff8082111561079c57600080fd5b6107a8868387016106e4565b935060208501359150808211156107be57600080fd5b506107cb858286016106e4565b9150509250929050565b60006020808301818452808551808352604092508286019150828160051b87010184880160005b8381101561086257603f1989840301855281516080815181865261082282870182610617565b915050888201518582038a87015261083a8282610617565b838a0151878b01526060938401519390960192909252505093860193908601906001016107fc565b509098975050505050505050565b6000806040838503121561088357600080fd5b823591506020830135801515811461089a57600080fd5b809150509250929050565b600181811c908216806108b957607f821691505b6020821081036108d957634e487b7160e01b600052602260045260246000fd5b50919050565b601f82111561092957600081815260208120601f850160051c810160208610156109065750805b601f850160051c820191505b8181101561092557828155600101610912565b5050505b505050565b815167ffffffffffffffff811115610948576109486106ce565b61095c8161095684546108a5565b846108df565b602080601f83116001811461099157600084156109795750858301515b600019600386901b1c1916600185901b178555610925565b600085815260208120601f198616915b828110156109c0578886015182559484019460019091019084016109a1565b50858210156109de5787850151600019600388901b60f8161c191681555b5050505050600190811b01905550565b634e487b7160e01b600052603260045260246000fd5b600060018201610a2457634e487b7160e01b600052601160045260246000fd5b506001019056fea2646970667358221220e1168eb27e669f520affd2946472c7e21cf7fb2502c580963be774d1f8769a5464736f6c63430008130033",
        "linkReferences": {}
    },
    "methodIdentifiers": {
        "createProposal(string,string)": "65e481e2",
        "getProposalsCount()": "98e527d3",
        "hasVoted(address,uint256)": "42545825",
        "proposals(uint256)": "013cf08b",
        "readProposals()": "80934f33",
        "vote(uint256,bool)": "c9d27afe"
    },
    "id": 20
}